{
  "contractName": "BuildCollective",
  "abi": [
    {
      "anonymous": false,
      "inputs": [
        {
          "indexed": true,
          "internalType": "address",
          "name": "userAddress",
          "type": "address"
        },
        {
          "components": [
            {
              "internalType": "string",
              "name": "username",
              "type": "string"
            },
            {
              "internalType": "uint256",
              "name": "balance",
              "type": "uint256"
            },
            {
              "internalType": "bool",
              "name": "registered",
              "type": "bool"
            }
          ],
          "indexed": true,
          "internalType": "struct BuildCollective.User",
          "name": "user",
          "type": "tuple"
        }
      ],
      "name": "UserSignedUp",
      "type": "event"
    },
    {
      "constant": true,
      "inputs": [],
      "name": "owner",
      "outputs": [
        {
          "internalType": "address",
          "name": "",
          "type": "address"
        }
      ],
      "payable": false,
      "stateMutability": "view",
      "type": "function"
    },
    {
      "constant": true,
      "inputs": [
        {
          "internalType": "address",
          "name": "",
          "type": "address"
        }
      ],
      "name": "users",
      "outputs": [
        {
          "internalType": "string",
          "name": "username",
          "type": "string"
        },
        {
          "internalType": "uint256",
          "name": "balance",
          "type": "uint256"
        },
        {
          "internalType": "bool",
          "name": "registered",
          "type": "bool"
        }
      ],
      "payable": false,
      "stateMutability": "view",
      "type": "function"
    },
    {
      "constant": false,
      "inputs": [
        {
          "internalType": "address",
          "name": "_userAddress",
          "type": "address"
        },
        {
          "internalType": "uint256",
          "name": "_balance",
          "type": "uint256"
        },
        {
          "internalType": "string",
          "name": "_userName",
          "type": "string"
        }
      ],
      "name": "createUser",
      "outputs": [],
      "payable": false,
      "stateMutability": "nonpayable",
      "type": "function"
    },
    {
      "constant": false,
      "inputs": [
        {
          "internalType": "address",
          "name": "_userAddress",
          "type": "address"
        },
        {
          "internalType": "uint256",
          "name": "_balance",
          "type": "uint256"
        },
        {
          "internalType": "string",
          "name": "_entName",
          "type": "string"
        },
        {
          "components": [
            {
              "internalType": "string",
              "name": "username",
              "type": "string"
            },
            {
              "internalType": "uint256",
              "name": "balance",
              "type": "uint256"
            },
            {
              "internalType": "bool",
              "name": "registered",
              "type": "bool"
            }
          ],
          "internalType": "struct BuildCollective.User[]",
          "name": "_members",
          "type": "tuple[]"
        },
        {
          "components": [
            {
              "internalType": "string",
              "name": "username",
              "type": "string"
            },
            {
              "internalType": "uint256",
              "name": "balance",
              "type": "uint256"
            },
            {
              "internalType": "bool",
              "name": "registered",
              "type": "bool"
            }
          ],
          "internalType": "struct BuildCollective.User",
          "name": "_owner",
          "type": "tuple"
        }
      ],
      "name": "createEnt",
      "outputs": [],
      "payable": false,
      "stateMutability": "nonpayable",
      "type": "function"
    },
    {
      "constant": false,
      "inputs": [
        {
          "internalType": "address",
          "name": "_userAddress",
          "type": "address"
        },
        {
          "internalType": "uint256",
          "name": "_balance",
          "type": "uint256"
        },
        {
          "internalType": "string",
          "name": "_Name",
          "type": "string"
        },
        {
          "components": [
            {
              "internalType": "string",
              "name": "username",
              "type": "string"
            },
            {
              "internalType": "uint256",
              "name": "balance",
              "type": "uint256"
            },
            {
              "internalType": "bool",
              "name": "registered",
              "type": "bool"
            }
          ],
          "internalType": "struct BuildCollective.User[]",
          "name": "_cont",
          "type": "tuple[]"
        },
        {
          "internalType": "string",
          "name": "_owner",
          "type": "string"
        }
      ],
      "name": "createProject",
      "outputs": [],
      "payable": false,
      "stateMutability": "nonpayable",
      "type": "function"
    },
    {
      "constant": false,
      "inputs": [
        {
          "internalType": "address",
          "name": "_to",
          "type": "address"
        }
      ],
      "name": "sendEther",
      "outputs": [],
      "payable": true,
      "stateMutability": "payable",
      "type": "function"
    },
    {
      "constant": false,
      "inputs": [
        {
          "internalType": "address",
          "name": "_to",
          "type": "address"
        }
      ],
      "name": "sendEther_project",
      "outputs": [],
      "payable": false,
      "stateMutability": "nonpayable",
      "type": "function"
    },
    {
      "constant": true,
      "inputs": [
        {
          "internalType": "address",
          "name": "userAddress",
          "type": "address"
        }
      ],
      "name": "user",
      "outputs": [
        {
          "components": [
            {
              "internalType": "string",
              "name": "username",
              "type": "string"
            },
            {
              "internalType": "uint256",
              "name": "balance",
              "type": "uint256"
            },
            {
              "internalType": "bool",
              "name": "registered",
              "type": "bool"
            }
          ],
          "internalType": "struct BuildCollective.User",
          "name": "",
          "type": "tuple"
        }
      ],
      "payable": false,
      "stateMutability": "view",
      "type": "function"
    },
    {
      "constant": false,
      "inputs": [
        {
          "internalType": "string",
          "name": "username",
          "type": "string"
        }
      ],
      "name": "signUp",
      "outputs": [
        {
          "components": [
            {
              "internalType": "string",
              "name": "username",
              "type": "string"
            },
            {
              "internalType": "uint256",
              "name": "balance",
              "type": "uint256"
            },
            {
              "internalType": "bool",
              "name": "registered",
              "type": "bool"
            }
          ],
          "internalType": "struct BuildCollective.User",
          "name": "",
          "type": "tuple"
        }
      ],
      "payable": false,
      "stateMutability": "nonpayable",
      "type": "function"
    },
    {
      "constant": false,
      "inputs": [
        {
          "internalType": "uint256",
          "name": "amount",
          "type": "uint256"
        }
      ],
      "name": "addBalance",
      "outputs": [
        {
          "internalType": "bool",
          "name": "",
          "type": "bool"
        }
      ],
      "payable": false,
      "stateMutability": "nonpayable",
      "type": "function"
    }
  ],
  "bytecode": "0x6080604052336000806101000a81548173ffffffffffffffffffffffffffffffffffffffff021916908373ffffffffffffffffffffffffffffffffffffffff16021790555034801561005057600080fd5b50611f28806100606000396000f3fe6080604052600436106100915760003560e01c8063a87430ba11610059578063a87430ba1461016c578063adcfb4fc146101ab578063c07e53e7146101e8578063cee08b1714610211578063d91921ed1461023a57610091565b8063244032941461009657806348c981e2146100bf57806381e7e20e146100db5780638da5cb5b146101185780639d83694b14610143575b600080fd5b3480156100a257600080fd5b506100bd60048036036100b891908101906114d9565b610277565b005b6100d960048036036100d491908101906114d9565b610591565b005b3480156100e757600080fd5b5061010260048036036100fd91908101906114d9565b61064b565b60405161010f9190611c40565b60405180910390f35b34801561012457600080fd5b5061012d61076b565b60405161013a9190611b8c565b60405180910390f35b34801561014f57600080fd5b5061016a60048036036101659190810190611502565b610790565b005b34801561017857600080fd5b50610193600480360361018e91908101906114d9565b6108ed565b6040516101a293929190611bc2565b60405180910390f35b3480156101b757600080fd5b506101d260048036036101cd91908101906116e7565b6109bc565b6040516101df9190611c40565b60405180910390f35b3480156101f457600080fd5b5061020f600480360361020a9190810190611628565b610b16565b005b34801561021d57600080fd5b5061023860048036036102339190810190611569565b610def565b005b34801561024657600080fd5b50610261600480360361025c9190810190611728565b611092565b60405161026e9190611ba7565b60405180910390f35b60008090506000600360003073ffffffffffffffffffffffffffffffffffffffff1673ffffffffffffffffffffffffffffffffffffffff16815260200190815260200160002060020180549050905060008090505b8181101561053c57600160008573ffffffffffffffffffffffffffffffffffffffff1673ffffffffffffffffffffffffffffffffffffffff168152602001908152602001600020600001600160008673ffffffffffffffffffffffffffffffffffffffff1673ffffffffffffffffffffffffffffffffffffffff16815260200190815260200160002060010154600160008773ffffffffffffffffffffffffffffffffffffffff1673ffffffffffffffffffffffffffffffffffffffff16815260200190815260200160002060020160009054906101000a900460ff166040516020016103bb93929190611b27565b60405160208183030381529060405280519060200120600360003073ffffffffffffffffffffffffffffffffffffffff1673ffffffffffffffffffffffffffffffffffffffff168152602001908152602001600020600201828154811061041e57fe5b9060005260206000209060030201600001600360003073ffffffffffffffffffffffffffffffffffffffff1673ffffffffffffffffffffffffffffffffffffffff168152602001908152602001600020600201838154811061047c57fe5b906000526020600020906003020160010154600360003073ffffffffffffffffffffffffffffffffffffffff1673ffffffffffffffffffffffffffffffffffffffff16815260200190815260200160002060020184815481106104db57fe5b906000526020600020906003020160020160009054906101000a900460ff1660405160200161050c93929190611b27565b604051602081830303815290604052805190602001201415610531576001925061053c565b6001810190506102cc565b508161057d576040517f08c379a000000000000000000000000000000000000000000000000000000000815260040161057490611c20565b60405180910390fd5b600083905061058b81610591565b50505050565b6000819050600060608273ffffffffffffffffffffffffffffffffffffffff16346040516105be90611b60565b60006040518083038185875af1925050503d80600081146105fb576040519150601f19603f3d011682016040523d82523d6000602084013e610600565b606091505b509150915081610645576040517f08c379a000000000000000000000000000000000000000000000000000000000815260040161063c90611c00565b60405180910390fd5b50505050565b610653611146565b600160008373ffffffffffffffffffffffffffffffffffffffff1673ffffffffffffffffffffffffffffffffffffffff168152602001908152602001600020604051806060016040529081600082018054600181600116156101000203166002900480601f0160208091040260200160405190810160405280929190818152602001828054600181600116156101000203166002900480156107365780601f1061070b57610100808354040283529160200191610736565b820191906000526020600020905b81548152906001019060200180831161071957829003601f168201915b50505050508152602001600182015481526020016002820160009054906101000a900460ff1615151515815250509050919050565b6000809054906101000a900473ffffffffffffffffffffffffffffffffffffffff1681565b6000600160008573ffffffffffffffffffffffffffffffffffffffff1673ffffffffffffffffffffffffffffffffffffffff16815260200190815260200160002090508060020160009054906101000a900460ff16156107ef57600080fd5b82600160008673ffffffffffffffffffffffffffffffffffffffff1673ffffffffffffffffffffffffffffffffffffffff1681526020019081526020016000206001018190555081600160008673ffffffffffffffffffffffffffffffffffffffff1673ffffffffffffffffffffffffffffffffffffffff168152602001908152602001600020600001908051906020019061088c929190611169565b5060018060008673ffffffffffffffffffffffffffffffffffffffff1673ffffffffffffffffffffffffffffffffffffffff16815260200190815260200160002060020160006101000a81548160ff02191690831515021790555050505050565b6001602052806000526040600020600091509050806000018054600181600116156101000203166002900480601f0160208091040260200160405190810160405280929190818152602001828054600181600116156101000203166002900480156109995780601f1061096e57610100808354040283529160200191610999565b820191906000526020600020905b81548152906001019060200180831161097c57829003601f168201915b5050505050908060010154908060020160009054906101000a900460ff16905083565b6109c4611146565b60008251116109d257600080fd5b60405180606001604052808381526020016000815260200160011515815250600160003373ffffffffffffffffffffffffffffffffffffffff1673ffffffffffffffffffffffffffffffffffffffff1681526020019081526020016000206000820151816000019080519060200190610a4c9291906111e9565b506020820151816001015560408201518160020160006101000a81548160ff021916908315150217905550905050600160003373ffffffffffffffffffffffffffffffffffffffff1673ffffffffffffffffffffffffffffffffffffffff168152602001908152602001600020604051610ac69190611b75565b60405180910390203373ffffffffffffffffffffffffffffffffffffffff167fc24de5261f8eff14607134de76bea692f6b10ab7b8b21d627fa4cd6347365b7460405160405180910390a3919050565b6000600260008773ffffffffffffffffffffffffffffffffffffffff1673ffffffffffffffffffffffffffffffffffffffff16815260200190815260200160002090508060060160009054906101000a900460ff1615610b7557600080fd5b84600260008873ffffffffffffffffffffffffffffffffffffffff1673ffffffffffffffffffffffffffffffffffffffff1681526020019081526020016000206005018190555083600260008873ffffffffffffffffffffffffffffffffffffffff1673ffffffffffffffffffffffffffffffffffffffff1681526020019081526020016000206000019080519060200190610c12929190611169565b5081600260008873ffffffffffffffffffffffffffffffffffffffff1673ffffffffffffffffffffffffffffffffffffffff1681526020019081526020016000206001016000820151816000019080519060200190610c729291906111e9565b506020820151816001015560408201518160020160006101000a81548160ff02191690831515021790555090505060008351905060008090505b81811015610d8a57600260008973ffffffffffffffffffffffffffffffffffffffff1673ffffffffffffffffffffffffffffffffffffffff168152602001908152602001600020600401858281518110610d0257fe5b6020026020010151908060018154018082558091505090600182039060005260206000209060030201600090919290919091506000820151816000019080519060200190610d519291906111e9565b506020820151816001015560408201518160020160006101000a81548160ff021916908315150217905550505050600181019050610cac565b506001600260008973ffffffffffffffffffffffffffffffffffffffff1673ffffffffffffffffffffffffffffffffffffffff16815260200190815260200160002060060160006101000a81548160ff02191690831515021790555050505050505050565b6000600360008773ffffffffffffffffffffffffffffffffffffffff1673ffffffffffffffffffffffffffffffffffffffff16815260200190815260200160002090508060040160009054906101000a900460ff1615610e4e57600080fd5b84600360008873ffffffffffffffffffffffffffffffffffffffff1673ffffffffffffffffffffffffffffffffffffffff1681526020019081526020016000206003018190555083600360008873ffffffffffffffffffffffffffffffffffffffff1673ffffffffffffffffffffffffffffffffffffffff1681526020019081526020016000206000019080519060200190610eeb929190611169565b5081600360008873ffffffffffffffffffffffffffffffffffffffff1673ffffffffffffffffffffffffffffffffffffffff1681526020019081526020016000206001019080519060200190610f42929190611169565b5060008351905060008090505b8181101561102d57600360008973ffffffffffffffffffffffffffffffffffffffff1673ffffffffffffffffffffffffffffffffffffffff168152602001908152602001600020600201858281518110610fa557fe5b6020026020010151908060018154018082558091505090600182039060005260206000209060030201600090919290919091506000820151816000019080519060200190610ff49291906111e9565b506020820151816001015560408201518160020160006101000a81548160ff021916908315150217905550505050600181019050610f4f565b506001600360008973ffffffffffffffffffffffffffffffffffffffff1673ffffffffffffffffffffffffffffffffffffffff16815260200190815260200160002060040160006101000a81548160ff02191690831515021790555050505050505050565b6000600160003373ffffffffffffffffffffffffffffffffffffffff1673ffffffffffffffffffffffffffffffffffffffff16815260200190815260200160002060020160009054906101000a900460ff166110ed57600080fd5b81600160003373ffffffffffffffffffffffffffffffffffffffff1673ffffffffffffffffffffffffffffffffffffffff1681526020019081526020016000206001016000828254019250508190555060019050919050565b604051806060016040528060608152602001600081526020016000151581525090565b828054600181600116156101000203166002900490600052602060002090601f016020900481019282601f106111aa57805160ff19168380011785556111d8565b828001600101855582156111d8579182015b828111156111d75782518255916020019190600101906111bc565b5b5090506111e59190611269565b5090565b828054600181600116156101000203166002900490600052602060002090601f016020900481019282601f1061122a57805160ff1916838001178555611258565b82800160010185558215611258579182015b8281111561125757825182559160200191906001019061123c565b5b5090506112659190611269565b5090565b61128b91905b8082111561128757600081600090555060010161126f565b5090565b90565b60008135905061129d81611ea0565b92915050565b600082601f8301126112b457600080fd5b81356112c76112c282611c8f565b611c62565b9150818183526020840193506020810190508360005b8381101561130d57813586016112f388826113d4565b8452602084019350602083019250506001810190506112dd565b5050505092915050565b60008135905061132681611eb7565b92915050565b600082601f83011261133d57600080fd5b813561135061134b82611cb7565b611c62565b9150808252602083016020830185838301111561136c57600080fd5b611377838284611dd1565b50505092915050565b600082601f83011261139157600080fd5b81356113a461139f82611ce3565b611c62565b915080825260208301602083018583830111156113c057600080fd5b6113cb838284611dd1565b50505092915050565b6000606082840312156113e657600080fd5b6113f06060611c62565b9050600082013567ffffffffffffffff81111561140c57600080fd5b6114188482850161132c565b600083015250602061142c848285016114c4565b602083015250604061144084828501611317565b60408301525092915050565b60006060828403121561145e57600080fd5b6114686060611c62565b9050600082013567ffffffffffffffff81111561148457600080fd5b6114908482850161132c565b60008301525060206114a4848285016114c4565b60208301525060406114b884828501611317565b60408301525092915050565b6000813590506114d381611ece565b92915050565b6000602082840312156114eb57600080fd5b60006114f98482850161128e565b91505092915050565b60008060006060848603121561151757600080fd5b60006115258682870161128e565b9350506020611536868287016114c4565b925050604084013567ffffffffffffffff81111561155357600080fd5b61155f86828701611380565b9150509250925092565b600080600080600060a0868803121561158157600080fd5b600061158f8882890161128e565b95505060206115a0888289016114c4565b945050604086013567ffffffffffffffff8111156115bd57600080fd5b6115c988828901611380565b935050606086013567ffffffffffffffff8111156115e657600080fd5b6115f2888289016112a3565b925050608086013567ffffffffffffffff81111561160f57600080fd5b61161b88828901611380565b9150509295509295909350565b600080600080600060a0868803121561164057600080fd5b600061164e8882890161128e565b955050602061165f888289016114c4565b945050604086013567ffffffffffffffff81111561167c57600080fd5b61168888828901611380565b935050606086013567ffffffffffffffff8111156116a557600080fd5b6116b1888289016112a3565b925050608086013567ffffffffffffffff8111156116ce57600080fd5b6116da8882890161144c565b9150509295509295909350565b6000602082840312156116f957600080fd5b600082013567ffffffffffffffff81111561171357600080fd5b61171f84828501611380565b91505092915050565b60006020828403121561173a57600080fd5b6000611748848285016114c4565b91505092915050565b600061175d83836117c2565b60208301905092915050565b6000611775838361185a565b905092915050565b60006117898383611b01565b60208301905092915050565b61179e81611d89565b82525050565b6117ad81611d9b565b82525050565b6117bc81611d9b565b82525050565b6117cb81611d9b565b82525050565b6117e26117dd82611d9b565b611e47565b82525050565b60006117f382611d24565b6117fd8185611d3a565b935061180d818560208601611de0565b61181681611e75565b840191505092915050565b600061182c82611d24565b6118368185611d4b565b9350611846818560208601611de0565b61184f81611e75565b840191505092915050565b600081546001811660008114611877576001811461189d576118e1565b607f60028304166118888187611d5c565b955060ff1983168652602086019350506118e1565b600282046118ab8187611d5c565b95506118b685611d0f565b60005b828110156118d8578154818901526001820191506020810190506118b9565b80880195505050505b505092915050565b600081546001811660008114611906576001811461192b5761196f565b607f60028304166119178187611d67565b955060ff198316865280860193505061196f565b600282046119398187611d67565b955061194485611d0f565b60005b8281101561196657815481890152600182019150602081019050611947565b82880195505050505b505092915050565b6000611984601483611d4b565b91507f4661696c656420746f2073656e642045746865720000000000000000000000006000830152602082019050919050565b60006119c4602d83611d4b565b91507f546865206163636f756e74206973206e6f74206120636f6e747269627574657260008301527f206f6620612070726f6a656374000000000000000000000000000000000000006020830152604082019050919050565b6000611a2a600083611d2f565b9150600082019050919050565b60006060830160008301518482036000860152611a5482826117e8565b9150506020830151611a696020860182611ae3565b506040830151611a7c60408601826117a4565b508091505092915050565b60008083016000808401611a9b8682611769565b95505060018401549050611aae81611e2d565b611ab8868261177d565b95505060028401549050611acb81611e13565b611ad58682611751565b955050849250505092915050565b611aec81611dc7565b82525050565b611afb81611dc7565b82525050565b611b0a81611dc7565b82525050565b611b21611b1c82611dc7565b611e59565b82525050565b6000611b3382866118e9565b9150611b3f8285611b10565b602082019150611b4f82846117d1565b600182019150819050949350505050565b6000611b6b82611a1d565b9150819050919050565b6000611b818284611a87565b915081905092915050565b6000602082019050611ba16000830184611795565b92915050565b6000602082019050611bbc60008301846117b3565b92915050565b60006060820190508181036000830152611bdc8186611821565b9050611beb6020830185611af2565b611bf860408301846117b3565b949350505050565b60006020820190508181036000830152611c1981611977565b9050919050565b60006020820190508181036000830152611c39816119b7565b9050919050565b60006020820190508181036000830152611c5a8184611a37565b905092915050565b6000604051905081810181811067ffffffffffffffff82111715611c8557600080fd5b8060405250919050565b600067ffffffffffffffff821115611ca657600080fd5b602082029050602081019050919050565b600067ffffffffffffffff821115611cce57600080fd5b601f19601f8301169050602081019050919050565b600067ffffffffffffffff821115611cfa57600080fd5b601f19601f8301169050602081019050919050565b60008190508160005260206000209050919050565b600081519050919050565b600081905092915050565b600082825260208201905092915050565b600082825260208201905092915050565b600081905092915050565b600081905092915050565b600060ff82169050919050565b6000819050919050565b6000611d9482611da7565b9050919050565b60008115159050919050565b600073ffffffffffffffffffffffffffffffffffffffff82169050919050565b6000819050919050565b82818337600083830152505050565b60005b83811015611dfe578082015181840152602081019050611de3565b83811115611e0d576000848401525b50505050565b6000611e26611e2183611e93565b611d72565b9050919050565b6000611e40611e3b83611e93565b611d7f565b9050919050565b6000611e5282611e63565b9050919050565b6000819050919050565b6000611e6e82611e86565b9050919050565b6000601f19601f8301169050919050565b60008160f81b9050919050565b60008160001c9050919050565b611ea981611d89565b8114611eb457600080fd5b50565b611ec081611d9b565b8114611ecb57600080fd5b50565b611ed781611dc7565b8114611ee257600080fd5b5056fea365627a7a72315820aa11e4087d19a6ea7f713445bcd13da92ebbad4def734d66212ba2c7290c190c6c6578706572696d656e74616cf564736f6c63430005100040",
  "source": "pragma solidity >=0.4.22 <0.9.0;\npragma experimental ABIEncoderV2;\n\nimport \"./Ownable.sol\";\n\ncontract BuildCollective is Ownable {\n  struct User {\n    string username;\n    uint256 balance;\n    bool registered;\n  }\n  struct Entreprise {\n    string ENT_name;\n    User Owner;\n    User [] members;\n    uint256 balance;\n    bool registered;\n  }\n  struct Project {\n    string name;\n    string Owner;\n    User [] Contributers;\n    uint256 balance;\n    bool registered;\n  }\n\n  \n\n  mapping(address => User) public users;\n  mapping(address => Entreprise) private ents;\n  mapping(address => Project) private projects;\n\n\n\n\n  // Create User \n  \n  function createUser(address _userAddress, uint256 _balance,string memory _userName) public {\n    User storage user = users[_userAddress];\n    // Check that the user did not already exist:\n    require(!user.registered);\n    //Store the user\n    users[_userAddress].balance =_balance;\n    users[_userAddress].username =_userName;\n    //require(keccak256(abi.encodePacked((users[_userAddress].username)))==keccak256(abi.encodePacked((_userName))),\"NON\");\n    users[_userAddress].registered= true; \n    //item++;\n    \n}\n\n// Create Entreprise\nfunction createEnt(address _userAddress, uint256 _balance,string memory _entName,User[] memory _members,User memory _owner) public {\n    Entreprise storage ent = ents[_userAddress];\n    // Check that the user did not already exist:\n    require(!ent.registered);\n    //Store the user\n    ents[_userAddress].balance= _balance;\n    ents[_userAddress].ENT_name= _entName;\n    ents[_userAddress].Owner= _owner;\n    uint256 len=_members.length;\n    for (uint256 i = 0; i < len; i+=1) {\n            ents[_userAddress].members.push(_members[i]);\n        }\n    ents[_userAddress].registered= true;\n    \n}\n\n// Create Project\nfunction createProject(address _userAddress, uint256 _balance,string memory _Name,User[] memory _cont,string memory _owner) public {\n    Project storage pro = projects[_userAddress];\n    // Check that the user did not already exist:\n    require(!pro.registered);\n    //Store the user\n    projects[_userAddress].balance= _balance;\n    projects[_userAddress].name= _Name;\n    projects[_userAddress].Owner= _owner;\n    uint256 len=_cont.length;\n    for (uint256 i = 0; i < len; i+=1) {\n            projects[_userAddress].Contributers.push(_cont[i]);\n        }\n    projects[_userAddress].registered= true;\n}\n\n// send ether\n function sendEther (address _to) public payable {\n   address payable __to = address(uint160(_to));\n   (bool sent,bytes memory data)=__to.call.value(msg.value)(\"\");\n   require(sent,\"Failed to send Ether\");\n\n}\n// send ether for project\n  function sendEther_project (address _to) public {\n   bool exist=false;\n   uint256 len=projects[address (this)].Contributers.length;\n   for (uint256 i=0;i<len;i+=1){\n     if (keccak256 (abi.encodePacked(projects[address (this)].Contributers[i].username,projects[address (this)].Contributers[i].balance,projects[address (this)].Contributers[i].registered))==keccak256 (abi.encodePacked(users[_to].username,users[_to].balance,users[_to].registered))){\n       exist=true;\n       break;\n     }\n   }\n   require(exist,\"The account is not a contributer of a project\");\n   address payable __to = address(uint160(_to));\n   sendEther(__to);\n}\n\n  event UserSignedUp(address indexed userAddress, User indexed user);\n\n  function user(address userAddress) public view returns (User memory) {\n    return users[userAddress];\n  }\n\n  function signUp(string memory username) public returns (User memory) {\n    require(bytes(username).length > 0);\n    users[msg.sender] = User(username, 0, true);\n    emit UserSignedUp(msg.sender, users[msg.sender]);\n  }\n\n  function addBalance(uint256 amount) public returns (bool) {\n    require(users[msg.sender].registered);\n    users[msg.sender].balance += amount;\n    return true;\n  }\n}\n",
  "sourcePath": "/home/wassim/build-collective/contracts/BuildCollective.sol",
  "compiler": {
    "name": "solc",
    "version": "0.5.16+commit.9c3226ce.Emscripten.clang"
  },
  "schemaVersion": "3.4.3",
  "updatedAt": "2021-11-28T20:09:25.100Z",
  "networkType": "ethereum",
  "devdoc": {
    "methods": {}
  },
  "userdoc": {
    "methods": {}
  }
}